:100000000C9456000C94E9000C9435010C94810179
:100010000C94B2010C9473000C9473000C94730054
:100020000C9473000C9473000C9473000C94730084
:100030000C9473000C9473000C9473000C94730074
:100040000C9473000C9473000C9473000C94730064
:100050000C9473000C9473000C9473000C94730054
:100060000C9473000C9473000C9473000C94730044
:100070000C9473000C9473000C9473000C94730034
:100080000C94F8010C9473000C9473000C9473009E
:100090000C9473000C9473000C9473000C94730014
:1000A0000C9473000C9473000C94730011241FBE05
:1000B000CFEFDAE0DEBFCDBF11E0A0E0B1E0E8ECC9
:1000C000F7E002C005900D92A434B107D9F721E002
:1000D000A4E4B1E001C01D92A934B207E1F70E9487
:1000E0000D030C94E2030C9400008AB18C7F8AB952
:1000F0008BB183608BB98AB1837F8AB98BB18C60F5
:100100008BB9F894E9E6F0E080818A6A8083808187
:100110008A7A80838DB38F608DBB08950E947500AD
:100120003E9A4698569A5E9808959C0190910201D5
:10013000913029F01092990010929800089521159D
:100140003105C1F3C9010197C19730F0225331093C
:10015000263B334078F7089580E88093900084E14F
:1001600080939100322F2227330F330F40E050E06D
:1001700060E074E284EF90E00E94AC03309397005B
:1001800020939600DA01C901880F991FAA1FBB1F8F
:10019000820F931FA41FB51F880F991FAA1FBB1F93
:1001A000880F991FAA1FBB1F820F931FA41FB51F83
:1001B000BC01CD01660F771F881F991F20E137E230
:1001C00040E050E00E94AC033093990020939800E7
:1001D00008951F920F920FB60F9211242F938F93B1
:1001E0009F93AF93BF932FEF84E694E0215080401C
:1001F0009040E1F700C00000809101018130A9F03A
:10020000823049F480910001843128F4809100010A
:100210008F5F80930001BF91AF919F918F912F913C
:100220000F900FBE0F901F901895809144019091F0
:100230004501A0914601B09147014D97A105B10537
:1002400050F78091440190914501A0914601B091F1
:1002500047010196A11DB11D809344019093450172
:10026000A0934601B0934701D6CF1F920F920FB6CD
:100270000F9211242F938F939F93AF93BF932FEFE0
:1002800084E694E0215080409040E1F700C00000F7
:10029000809101018130A9F0823049F48091000100
:1002A000823028F080910001815080930001BF913D
:1002B000AF919F918F912F910F900FBE0F901F9034
:1002C00018958091440190914501A0914601B0910B
:1002D0004701892B8A2B8B2B51F3809144019091FC
:1002E0004501A0914601B09147010197A109B109CB
:1002F0008093440190934501A0934601B093470138
:10030000D6CF1F920F920FB60F9211242F938F9377
:100310009F932FEF84E694E0215080409040E1F7D6
:1003200000C000008091010110929000813069F0BE
:100330001092710081E0809301019F918F912F9124
:100340000F900FBE0F901F9018951092910082E0B1
:10035000809301019F918F912F910F900FBE0F906D
:100360001F9018951F920F920FB60F9211242F9382
:100370003F934F938F939F932FEF84E694E0215008
:1003800080409040E1F700C0000080910101813081
:1003900029F18230C9F4409100015E9A80EC80938B
:1003A00090008CE08093910020E732E0429FC001F2
:1003B000439F900D11249093990080939800809111
:1003C00071008260809371009F918F914F913F9156
:1003D0002F910F900FBE0F901F90189590910201D2
:1003E000913019F080930201EFCF10920201ECCF0F
:1003F0001F920F920FB60F9211248F93EF93FF93DA
:1004000046985E9810929000E1E7F0E0808182705B
:100410008083FF91EF918F910F900FBE0F901F90EF
:10042000189584B18F7084B98E6084B985B18F704E
:1004300085B92A9A2998F8942B9A0000000083B174
:10044000809348012B980000000080914801807F34
:10045000809348012B9A0000000083B12B98789478
:1004600082958F7090914801892B8093480184B1C7
:10047000806F84B908952A98611126C02998F8944C
:1004800095B19F7095B995B1282F207F922B95B982
:100490002B9A0000000000002B980000000095B18E
:1004A0009F7095B995B18295807F892B85B92B9ADC
:1004B0000000000000002B9878940E9411028091A7
:1004C000480187FDFACF0895299AD9CFCF93DF93BA
:1004D000EC018881882339F0219661E00E943B027B
:1004E00089918111FACFDF91CF910895CF93DF9356
:1004F000EC0197FD2BC0CE0168EE73E00E949803DB
:10050000262FEC0161E080E3820F0E943B02CE01C6
:1005100064E670E00E949803262FEC0161E080E31E
:10052000820F0E943B02CE016AE070E00E949803B5
:10053000962FC82F61E080E3890F0E943B0261E0A3
:1005400080E38C0FDF91CF910C943B0261E08DE250
:100550000E943B02D195C195D109CDCF90E4699F0E
:10056000800D1124815460E080680C943B0260E0AF
:1005700081E00C943B02F8948FEF99EF0197F1F72B
:1005800000C0000080E385B92B9A00000000000045
:100590002B98EFE4F6E43197F1F700C0000085B93D
:1005A0002B9A0000000000002B98EBECF1E0319753
:1005B000F1F700C0000085B92B9A00000000000090
:1005C0002B980E9411028091480187FDFACF80E2AA
:1005D00085B92B9A0000000000002B980E941102A0
:1005E0008091480187FDFACF60E088E20E943B02DB
:1005F000789460E084E10E943B0260E08FE00E941A
:100600003B0260E086E00E943B0260E082E00E94E4
:100610003B0260E081E00C943B020E94BB020E941E
:100620008E00789480910101813059F1823009F077
:1006300059C00E94B70261E081E00E94AE028CE2E4
:1006400091E00E94660262E081E00E94AE0288E3CF
:1006500091E00E946602809100012AE0829FC00121
:1006600011240E94760280E491E00E9466028FE3EA
:100670009CE90197F1F700C00000809101018130F1
:10068000A9F680910201882381F180914401909123
:100690004501A0914601B09147010E9495000E943A
:1006A000B70261E081E00E94AE0283E091E00E9427
:1006B000660262E081E00E94AE0283E191E00E9466
:1006C00066028091440190914501A0914601B0914C
:1006D00047010E9476028FE39CE90197F1F700C081
:1006E0000000A0CF0E94B7029DCF8091440190915D
:1006F0004501A0914601B09147010E9495000E94DA
:10070000B70261E081E00E94AE0283E091E00E94C6
:10071000660262E081E00E94AE028FE191E00E94F9
:1007200066028FE39CE90197F1F700C000007ACFE1
:1007300097FB072E16F4009407D077FD09D00E948E
:10074000CE0307FC05D03EF4909581959F4F089508
:10075000709561957F4F0895A1E21A2EAA1BBB1BCD
:10076000FD010DC0AA1FBB1FEE1FFF1FA217B3077D
:10077000E407F50720F0A21BB30BE40BF50B661F93
:10078000771F881F991F1A9469F760957095809557
:1007900090959B01AC01BD01CF010895AA1BBB1B25
:1007A00051E107C0AA1FBB1FA617B70710F0A61B71
:1007B000B70B881F991F5A95A9F780959095BC0192
:0807C000CD010895F894FFCF6C
:1007C8000101014D6F64653A2047656E6572617479
:1007D8006F72004672657175656E63793A200053D1
:1007E80077697463686564206F6666004D6F646539
:1007F8003A2050756C73650057696474683A200034
:04080800206D7300EC
:00000001FF
