:100000000C9456000C94DD000C941E010C945F01BE
:100010000C9481010C9473000C9473000C94730085
:100020000C9473000C9473000C9473000C94730084
:100030000C9473000C9473000C9473000C94730074
:100040000C9473000C9473000C9473000C94730064
:100050000C9473000C9473000C9473000C94730054
:100060000C9473000C9473000C9473000C94730044
:100070000C9473000C9473000C9473000C94730034
:100080000C94BE010C9473000C9473000C947300D8
:100090000C9473000C9473000C9473000C94730014
:1000A0000C9473000C9473000C94730011241FBE05
:1000B000CFEFDAE0DEBFCDBF11E0A0E0B1E0E2E7D4
:1000C000F7E002C005900D92A434B107D9F721E002
:1000D000A4E4B1E001C01D92A934B207E1F70E9487
:1000E000D3020C94B7030C9400008AB18C7F8AB9B8
:1000F0008BB183608BB98AB1837F8AB98BB18C60F5
:100100008BB9F894E9E6F0E080818A6A8083808187
:100110008A7A80838DB38F608DBB08950E947500AD
:100120003E9A4698569A5E98089520910201213091
:1001300029F0109299001092980008959C01215086
:1001400031092133310560F12D5131092A3C334009
:1001500080F720E82093900024E1209391009C01F7
:10016000322F2227330F40E050E060E074E284EF4A
:1001700090E00E9472033093970020939600220F24
:10018000331FADECBCEC0E94940396958795969531
:1001900087959695879590939900809398000895F8
:1001A00020E82093900025E1209391009C01322FBC
:1001B0002227330F330F330FD6CF1F920F920FB674
:1001C0000F9211248F939F93AF93BF93809101015E
:1001D0008130A1F0823049F480910001843128F40B
:1001E000809100018F5F80930001BF91AF919F913B
:1001F0008F910F900FBE0F901F9018958091440122
:1002000090914501A0914601B09147014D97A105FC
:10021000B10558F78091440190914501A0914601A4
:10022000B09147010196A11DB11D809344019093A7
:100230004501A0934601B0934701D7CF1F920F927B
:100240000FB60F9211248F939F93AF93BF9380911A
:1002500001018130A1F0823049F4809100018230A7
:1002600028F080910001815080930001BF91AF91EF
:100270009F918F910F900FBE0F901F9018958091B6
:10028000440190914501A0914601B0914701892B0D
:100290008A2B8B2B59F38091440190914501A091B9
:1002A0004601B09147010197A109B109809344012A
:1002B00090934501A0934601B0934701D7CF1F9279
:1002C0000F920FB60F9211248F938091010110921B
:1002D0009000813059F01092710081E0809301010B
:1002E0008F910F900FBE0F901F9018951092910054
:1002F00082E0809301018F910F900FBE0F901F90AD
:1003000018951F920F920FB60F9211242F933F93BF
:100310004F938F939F9380910101813029F1823017
:10032000C9F4409100015E9A80EC809390008CE0CB
:100330008093910020E732E0429FC001439F900DDF
:1003400011249093990080939800809171008260AD
:10035000809371009F918F914F913F912F910F90BA
:100360000FBE0F901F90189590910201913019F0D7
:1003700080930201EFCF10920201ECCF1F920F92F7
:100380000FB60F9211248F93EF93FF9346985E98C8
:1003900010929000E1E7F0E0808182708083FF910D
:1003A000EF918F910F900FBE0F901F90189584B111
:1003B0008F7084B98E6084B985B18F7085B92A9A9F
:1003C0002998F8942B9A0000000083B1809348018B
:1003D0002B980000000080914801807F80934801A5
:1003E0002B9A0000000083B12B98789482958F702F
:1003F00090914801892B8093480184B1806F84B922
:1004000008952A98611126C02998F89495B19F7093
:1004100095B995B1282F207F922B95B92B9A000082
:10042000000000002B980000000095B19F7095B966
:1004300095B18295807F892B85B92B9A00000000A9
:1004400000002B9878940E94D7018091480187FD85
:10045000FACF0895299AD9CFCF93DF93EC01888101
:10046000882339F0219661E00E940102899181116F
:10047000FACFDF91CF910895CF93DF93EC0197FDF1
:100480002BC0CE0168EE73E00E945E03262FEC01C4
:1004900061E080E3820F0E940102CE0164E670E019
:1004A0000E945E03262FEC0161E080E3820F0E9430
:1004B0000102CE016AE070E00E945E03962FC82F11
:1004C00061E080E3890F0E94010261E080E38C0F0C
:1004D000DF91CF910C94010261E08DE20E94010254
:1004E000D195C195D109CDCF90E4699F800D11249C
:1004F000815460E080680C94010260E081E00C941B
:100500000102F8948FEF99EF0197F1F700C0000016
:1005100080E385B92B9A0000000000002B98EFE4DF
:10052000F6E43197F1F700C0000085B92B9A00007E
:10053000000000002B98EBECF1E03197F1F700C0E0
:10054000000085B92B9A0000000000002B980E9443
:10055000D7018091480187FDFACF80E285B92B9AB7
:100560000000000000002B980E94D70180914801F4
:1005700087FDFACF60E088E20E940102789460E093
:1005800084E10E94010260E08FE00E94010260E0CD
:1005900086E00E94010260E082E00E94010260E0C9
:1005A00081E00C9401020E9481020E948E007894E6
:1005B00080910101813059F1823009F059C00E94C7
:1005C0007D0261E081E00E9474028CE291E00E9471
:1005D0002C0262E081E00E94740288E391E00E94B4
:1005E0002C02809100012AE0829FC00111240E9408
:1005F0003C0280E491E00E942C028FE39CE9019789
:10060000F1F700C00000809101018130A9F68091CE
:100610000201882381F18091440190914501A091CC
:100620004601B09147010E9495000E947D0261E061
:1006300081E00E94740283E091E00E942C0262E05B
:1006400081E00E94740283E191E00E942C0280917B
:10065000440190914501A0914601B09147010E944B
:100660003C028FE39CE90197F1F700C00000A0CFA6
:100670000E947D029DCF8091440190914501A091FF
:100680004601B09147010E9495000E947D0261E001
:1006900081E00E94740283E091E00E942C0262E0FB
:1006A00081E00E9474028FE191E00E942C028FE3AE
:1006B0009CE90197F1F700C000007ACF97FB072E65
:1006C00016F4009407D077FD09D00E94A30307FC1D
:1006D00005D03EF4909581959F4F08957095619552
:1006E0007F4F0895A1E21A2EAA1BBB1BFD010DC06E
:1006F000AA1FBB1FEE1FFF1FA217B307E407F507D2
:1007000020F0A21BB30BE40BF50B661F771F881FAD
:10071000991F1A9469F760957095809590959B0143
:10072000AC01BD01CF010895A29FB001B39FC001EC
:10073000A39F700D811D1124911DB29F700D811D0D
:100740001124911D0895AA1BBB1B51E107C0AA1FCC
:10075000BB1FA617B70710F0A61BB70B881F991F62
:100760005A95A9F780959095BC01CD010895F8940C
:02077000FFCFB9
:100772000101014D6F64653A2047656E65726174CF
:100782006F72004672657175656E63793A20005327
:1007920077697463686564206F6666004D6F64658F
:1007A2003A2050756C73650057696474683A20008A
:0407B200206D730043
:00000001FF
