:100000000C9456000C94EB000C9438010C94850170
:100010000C94AD010C9473000C9473000C94730059
:100020000C9473000C9473000C9473000C94730084
:100030000C9473000C9473000C9473000C94730074
:100040000C9473000C9473000C9473000C94730064
:100050000C9473000C9473000C9473000C94730054
:100060000C9473000C9473000C9473000C94730044
:100070000C9473000C9473000C9473000C94730034
:100080000C94EC010C9473000C9473000C947300AA
:100090000C9473000C9473000C9473000C94730014
:1000A0000C9473000C9473000C94730011241FBE05
:1000B000CFEFDAE0DEBFCDBF11E0A0E0B1E0E0E9D4
:1000C000F7E002C005900D92A434B107D9F721E002
:1000D000A4E4B1E001C01D92A934B207E1F70E9487
:1000E000EB020C94C6030C9400008AB18C7F8AB991
:1000F0008BB183608BB98AB1837F8AB98BB18C60F5
:100100008BB9F894E9E6F0E080818A6A8083808187
:100110008A7A80838DB38F608DBB08953E9A46980E
:10012000569A5E9808950E9475000C948E005E9A0F
:1001300090EC909390009CE09093910020E732E047
:10014000482F429FC001439F900D11249093990026
:1001500080939800E1E7F0E08081826080830895D9
:1001600020910201213061F4009751F09C0121504F
:1001700031092133310548F0C297863B934050F155
:100180001092990010929800089520E82093900012
:1001900024E1209391009C01322F2227330F330F4B
:1001A00040E050E060E074E284EF90E00E9476036B
:1001B0003093970020939600AAE1B0E00E94980344
:1001C00020E137E240E050E00E947603309399004E
:1001D0002093980008951F920F920FB60F9211244A
:1001E0002F938F939F93AF93BF932FEF84E694E069
:1001F000215080409040E1F700C000008091010153
:10020000813019F0823009F129C080914401909128
:100210004501A0914601B09147014D97A105B10557
:10022000E8F48091440190914501A0914601B0917C
:1002300047010196A11DB11D809344019093450192
:10024000A0934601B093470109C080910001843119
:1002500028F4809100018F5F80930001BF91AF91DE
:100260009F918F912F910F900FBE0F901F90189517
:100270001F920F920FB60F9211242F938F939F937B
:10028000AF93BF932FEF84E694E0215080409040DD
:10029000E1F700C0000080910101813019F0823047
:1002A00009F129C08091440190914501A091460136
:1002B000B0914701892B8A2B8B2BE9F08091440167
:1002C00090914501A0914601B09147010197A10984
:1002D000B1098093440190934501A0934601B093E6
:1002E000470109C080910001823028F0809100010F
:1002F000815080930001BF91AF919F918F912F9179
:100300000F900FBE0F901F9018951F920F920FB66F
:100310000F9211242F938F939F932FEF84E694E0F5
:10032000215080409040E1F700C000008091010121
:1003300010929000813021F41092910082E003C06D
:100340001092710081E0809301019F918F912F9114
:100350000F900FBE0F901F9018951F920F920FB61F
:100360000F9211242F933F934F935F936F937F933B
:100370008F939F93AF93BF93EF93FF932FEF84E6F9
:1003800094E0215080409040E1F700C0000080914F
:100390000101813039F0823071F4809100010E94B6
:1003A000970009C090910201913019F41092020156
:1003B00002C080930201FF91EF91BF91AF919F9195
:1003C0008F917F916F915F914F913F912F910F90FE
:1003D0000FBE0F901F9018951F920F920FB60F929D
:1003E00011248F93EF93FF9346985E98109290009C
:1003F000E1E7F0E0808182708083FF91EF918F913F
:100400000F900FBE0F901F90189584B18F7084B914
:100410008E6084B985B18F7085B92A9A2998F8942D
:100420002B9A0000000083B1809348012B980000B4
:10043000000080914801807F809348012B9A000042
:10044000000083B12B98789482958F709091480129
:10045000892B8093480184B1806F84B908950E94EC
:1004600005028091480187FDFACF08952A9861110D
:1004700002C0299801C0299AF89495B19F7095B946
:1004800095B1282F207F922B95B92B9A0000000060
:1004900000002B980000000095B19F7095B995B1B0
:1004A0008295807F892B85B92B9A0000000000007F
:1004B0002B9878940C942F0260E00C94360261E043
:1004C0000C943602CF93DF93EC018991882319F0C5
:1004D0000E945F02FACFDF91CF910895CF93DF930F
:1004E000EC0197FF06C08DE20E945F02D195C19595
:1004F000D109CE0168EE73E00E946203EC0180E353
:10050000860F0E945F02CE0164E670E00E946203E3
:10051000EC0180E3860F0E945F02CE016AE070E08A
:100520000E946203C82F80E3860F0E945F0280E36F
:100530008C0FDF91CF910C945F0290E4699F800D46
:100540001124815480680C945C0281E00C945C025C
:1005500085B92B9A0000000000002B980895F894AC
:100560008FEF99EF0197F1F700C0000080E30E9440
:10057000A8028FE496E40197F1F700C0000080E341
:100580000E94A8028BEC91E00197F1F700C00000F7
:1005900080E30E94A8020E942F0280E20E94A8022B
:1005A0000E942F0288E20E945C02789484E10E94FB
:1005B0005C028FE00E945C0286E00E945C0282E0A6
:1005C0000E945C0281E00C945C020E94AF020E94D7
:1005D0009300789408950E94E50280910101813092
:1005E00001F1823009F06BC00E94A50261E081E058
:1005F0000E949D028CE291E00E94620262E081E032
:100600000E949D0288E391E00E94620280910001B5
:100610002AE0829FC00111240E946E0280E491E0D2
:1006200045C080910201882339F180914401909165
:100630004501A0914601B09147010E94B0000E947F
:10064000A50261E081E00E949D0283E091E00E94AA
:10065000620262E081E00E949D0283E191E00E94DB
:1006600062028091440190914501A0914601B091B0
:1006700047010E946E021CC0809144019091450187
:10068000A0914601B09147010E94B0000E94A502CE
:1006900061E081E00E949D0283E091E00E9462029D
:1006A00062E081E00E949D028FE191E00E9462027F
:1006B0008FE39CE90197F1F700C000008ECF0E9404
:1006C000A5028BCF97FB072E16F4009407D077FD79
:1006D00009D00E94A30307FC05D03EF490958195B4
:1006E0009F4F0895709561957F4F0895A1E21A2E4E
:1006F000AA1BBB1BFD010DC0AA1FBB1FEE1FFF1FC6
:10070000A217B307E407F50720F0A21BB30BE40B15
:10071000F50B661F771F881F991F1A9469F760955C
:100720007095809590959B01AC01BD01CF01089516
:100730000E94B703A59F900DB49F900DA49F800DBC
:10074000911D11240895AA1BBB1B51E107C0AA1FCC
:10075000BB1FA617B70710F0A61BB70B881F991F62
:100760005A95A9F780959095BC01CD010895A29F57
:10077000B001B39FC001A39F700D811D1124911D75
:10078000B29F700D811D1124911D0895F894FFCF23
:100790000101014D6F64653A2047656E65726174B1
:1007A0006F72004672657175656E63793A20005309
:1007B00077697463686564206F6666004D6F646571
:1007C0003A2050756C73650057696474683A20006C
:0407D000206D730025
:00000001FF
