:100000000C9456000C94F3000C9435010C94770179
:100010000C9492010C9473000C9473000C94730074
:100020000C9473000C9473000C9473000C94730084
:100030000C9473000C9473000C9473000C94730074
:100040000C9473000C9473000C9473000C94730064
:100050000C9473000C9473000C9473000C94730054
:100060000C9473000C9473000C9473000C94730044
:100070000C9473000C9473000C9473000C94730034
:100080000C94C8010C9473000C9473000C947300CE
:100090000C9473000C9473000C9473000C94730014
:1000A0000C9473000C9473000C94730011241FBE05
:1000B000CFEFDAE0DEBFCDBF11E0A0E0B1E0E4E1D8
:1000C000F7E002C005900D92A434B107D9F721E002
:1000D000A4E4B1E001C01D92A934B207E1F70E9487
:1000E000C7020C9488030C9400008AB18C7F8AB9F3
:1000F0008BB183608BB98AB1837F8AB98BB18C60F5
:100100008BB9F894E9E6F0E080818A6A8083808187
:100110008A7A80838DB38F608DBB08953E9A46980E
:10012000569A5E9808950E9475000C948E005E9A0F
:1001300090EC909390009CE09093910020E732E047
:10014000482F429FC001439F900D11249093990026
:1001500080939800E1E7F0E08081826080830895D9
:1001600020910201213059F49C01215031092133A1
:10017000310550F02D5131092A3C334090F0109256
:10018000990010929800089520E82093900025E1AE
:10019000209391009C01322F2227330F330F330F0E
:1001A0000AC020E82093900024E1209391009C0154
:1001B000322F2227330F40E050E060E074E284EFFA
:1001C00090E00E9466033093970020939600C90147
:1001D000880F991F6AE070E00E943E0370939900B7
:1001E0006093980008951F920F920FB60F921124FA
:1001F0008F939F93AF93BF9380910101813019F04A
:10020000823009F129C08091440190914501A0916B
:100210004601B09147014D97A105B105E8F48091E1
:10022000440190914501A0914601B091470101968A
:10023000A11DB11D8093440190934501A0934601F7
:10024000B093470109C080910001843128F4809166
:1002500000018F5F80930001BF91AF919F918F91BB
:100260000F900FBE0F901F9018951F920F920FB610
:100270000F9211248F939F93AF93BF9380910101AD
:10028000813019F0823009F129C0809144019091A8
:100290004501A0914601B0914701892B8A2B8B2BF8
:1002A000E9F08091440190914501A0914601B091FF
:1002B00047010197A109B109809344019093450139
:1002C000A0934601B093470109C08091000182309C
:1002D00028F080910001815080930001BF91AF917F
:1002E0009F918F910F900FBE0F901F9018951F92A6
:1002F0000F920FB60F9211248F93809101011092EB
:100300009000813021F41092910082E003C010929D
:10031000710081E0809301018F910F900FBE0F90CB
:100320001F9018951F920F920FB60F9211242F93C2
:100330003F934F935F936F937F938F939F93AF936D
:10034000BF93EF93FF9380910101813039F08230A8
:1003500071F4809100010E94970009C09091020100
:10036000913019F41092020102C080930201FF91B2
:10037000EF91BF91AF919F918F917F916F915F911D
:100380004F913F912F910F900FBE0F901F90189596
:100390001F920F920FB60F9211248F93EF93FF933A
:1003A00046985E9810929000E1E7F0E080818270BC
:1003B0008083FF91EF918F910F900FBE0F901F9050
:1003C000189584B18F7084B98E6084B985B18F70AF
:1003D00085B92A9A2998F8942B9A0000000083B1D5
:1003E000809348012B980000000080914801807F95
:1003F000809348012B9A0000000083B12B987894D9
:1004000082958F7090914801892B8093480184B127
:10041000806F84B908950E94E1018091480187FDB1
:10042000FACF08952A98611102C0299801C0299A2B
:10043000F89495B19F7095B995B1282F207F922B94
:1004400095B92B9A0000000000002B9800000000D6
:1004500095B19F7095B995B18295807F892B85B9AB
:100460002B9A0000000000002B9878940C940B024B
:1004700060E00C94120261E00C941202CF93DF93BF
:10048000EC018991882319F00E943B02FACFDF9199
:10049000CF910895CF93DF93EC0197FF06C08DE2D3
:1004A0000E943B02D195C195D109CE0168EE73E05F
:1004B0000E945203EC0180E3860F0E943B02CE01B2
:1004C00064E670E00E945203EC0180E3860F0E9414
:1004D0003B02CE016AE070E00E945203C82F80E325
:1004E000860F0E943B0280E38C0FDF91CF910C942A
:1004F0003B0290E4699F800D1124815480680C9424
:10050000380281E00C94380285B92B9A0000000073
:1005100000002B980895F8948FEF99EF0197F1F769
:1005200000C0000080E30E9484028FE496E40197FB
:10053000F1F700C0000080E30E9484028BEC91E0A0
:100540000197F1F700C0000080E30E9484020E943E
:100550000B0280E20E9484020E940B0288E20E9449
:100560003802789484E10E9438028FE00E943802B9
:1005700086E00E94380282E00E94380281E00C94FA
:1005800038020E948B020E949300789408950E9482
:10059000C10280910101813001F1823009F06BC00C
:1005A0000E94810261E081E00E9479028CE291E088
:1005B0000E943E0262E081E00E94790288E391E0BD
:1005C0000E943E02809100012AE0829FC001112416
:1005D0000E944A0280E491E045C080910201882394
:1005E00039F18091440190914501A0914601B0916B
:1005F00047010E94B0000E94810261E081E00E94F8
:10060000790283E091E00E943E0262E081E00E9474
:10061000790283E191E00E943E0280914401909131
:100620004501A0914601B09147010E944A021CC0B9
:100630008091440190914501A0914601B0914701FC
:100640000E94B0000E94810261E081E00E94790274
:1006500083E091E00E943E0262E081E00E94790224
:100660008FE191E00E943E028FE39CE90197F1F750
:1006700000C000008ECF0E9481028BCFAA1BBB1B43
:1006800051E107C0AA1FBB1FA617B70710F0A61B92
:10069000B70B881F991F5A95A9F780959095BC01B3
:1006A000CD01089597FB072E16F4009407D077FD2F
:1006B00009D00E943E0307FC05D03EF49095819539
:1006C0009F4F0895709561957F4F0895A1E21A2E6E
:1006D000AA1BBB1BFD010DC0AA1FBB1FEE1FFF1FE6
:1006E000A217B307E407F50720F0A21BB30BE40B36
:1006F000F50B661F771F881F991F1A9469F760957D
:100700007095809590959B01AC01BD01CF01089536
:04071000F894FFCF8B
:100714000101014D6F64653A2047656E657261742D
:100724006F72004672657175656E63793A20005385
:1007340077697463686564206F6666004D6F6465ED
:100744003A2050756C73650057696474683A2000E8
:04075400206D7300A1
:00000001FF
